S01C00004865616470696563655F646573747265737365722E73726563ED
S11300000C9434000C9451000C9451000C94510045
S11300100C9451000C9451000C9451000C94510018
S11300200C9451000C9451000C9451000C94510008
S11300300C9451000C9451000C9451000C945100F8
S11300400C9451000C9451000C9451000C945100E8
S11300500C9451000C9451000C9451000C945100D8
S11300600C9451000C94510011241FBECFEFD8E022
S1130070DEBFCDBF12E0A0E0B1E0EAECF4E002C0E4
S113008005900D92AC30B107D9F722E0ACE0B2E0B4
S113009001C01D92AA32B207E1F70E94D3000C946A
S11300A063020C94000086EB0E94740181E40E94B8
S11300B0A20186E80E94A2018CE20E94A2010E9491
S11300C09A0186EB0E94740183E40E94A20181E0FC
S11300D00E94A2010E949A012FE986E891E0215032
S11300E080409040E1F700C0000086EB0E9474015C
S11300F084E50E94A2010E949A0187EB0E94740188
S11301000E94B401809312020E94B40180931002F1
S11301100E94B401809311020E94BE0180931C02CC
S11301200E949A018091100281110BC020911C023F
S113013088E790E0821B910990932902809328021A
S11301400895109229021092280208951092C50071
S113015087E68093C400E1ECF0E088E1808386E0E8
S11301608093C20080818068808308959091C0004C
S113017095FFFCCF8093C60008950F931F93CF93F0
S11301808C01C0E003C00E94B600CF5FF801EC0F01
S1130190F11D80818111F7CFCF911F910F910895A7
S11301A08091C60008950E94A60080EC87B98FE371
S11301B088B98FEF84B98EEF85B900E010E0E12CA7
S11301C0F12C0E9453000E94D000809321028133BD
S11301D021F480E091E00E94BD00809121028233ED
S11301E0D1F48EEF91E00E94BD004AE063E172E039
S11301F080912802909129020E942E02C0E0D0E052
S113020007C0FE01ED5EFD4F80810E94B60021967D
S1130210C330D105B4F380912102833319F4013042
S1130220110531F4833349F40130110531F403C06D
S113023001E010E002C002E010E001301105C1F558
S113024085B18D7F85B9C0E0D0E007C08FE99FE01C
S11302500197F1F700C000002196BE010D2E000C9D
S1130260880B990B0E94CF0120E030E046E154E472
S11302700E94C801882354F385B1826085B9C0E027
S1130280D0E007C08FE99FE00197F1F700C00000BC
S11302902196BE010D2E000C880B990B0E94CF01F4
S11302A020E030E046E154E40E94C801882354F37E
S11302B080912102843351F491E0E916F10431F480
S11302C085B18E7F85B9E12CF12C7BCF843309F085
S11302D078CFE114F10409F074CF85B1816085B958
S11302E0EE24E394F12C6DCF94EA9093BC009091AA
S11302F0BC009923E4F79091B900987F983011F0ED
S1130300903191F48093BB0084E88093BC00809189
S1130310BC008823E4F78091B900887F883131F0EC
S1130320803431F480E0089581E0089580E00895F8
S113033081E0089584E98093BC008091BC0084FD31
S1130340FCCF08958093BB0084E88093BC00809127
S1130350BC008823E4F78091B900887F883211F0CB
S113036081E0089580E0089584EC8093BC0080913E
S1130370BC008823E4F78091BB00089584E880934F
S1130380BC008091BC008823E4F78091BB000895F1
S11303900E940A0208F481E00895E89409C097FBDA
S11303A03EF490958095709561957F4F8F4F9F4F48
S11303B09923A9F0F92F96E9BB279395F69587958C
S11303C077956795B795F111F8CFFAF4BB0F11F44F
S11303D060FF1BC06F5F7F4F8F4F9F4F16C08823F6
S11303E011F096E911C0772321F09EE8872F762F2C
S11303F005C0662371F096E8862F70E060E02AF06D
S11304009A95660F771F881FDAF7880F9695879558
S113041097F90895990F0008550FAA0BE0E8FEEF2D
S113042016161706E807F907C0F012161306E407B4
S1130430F50798F0621B730B840B950B39F40A26AD
S113044061F0232B242B252B21F408950A2609F48B
S1130450A140A6958FEF811D811D0895BB274A30C9
S113046031F4992322F4BDE2909581959F4F0C9429
S11304703A02BB27FB015527AA27880F991FAA1FF9
S1130480A41710F0A41B83955051B9F7A05DAA33AB
S113049008F0A95DA193009779F7B111B193119276
S11304A0CB010C945302DC01FC01672F719177237B
S11304B0E1F7329704C07C916D9370836291AE171B
S10D04C0BF07C8F30895F894FFCFB6
S11304CA0A0A496E737472756374696F6E733A0AB1
S11304DA2831294D616B65207375726520796F75B2
S11304EA206861766520796F75722066696E676522
S11304FA72207072657373696E6720746865204828
S113050A522073656E736F720A283229546F206DF4
S113051A65617375726520796F7572206865617299
S113052A74207261746520707265737320746865CF
S113053A202A48522A20627574746F6E0A28332955
S113054A466F7220766962726174696F6E206F7287
S113055A206D75736963207072657373202A4D6FF9
S113056A746F72732A206F72202A4D757369632A15
S113057A20627574746F6E730A283429546F206369
S113058A6C65616E207468652073637265656E209C
S113059A707265737320746865203320646F747392
S11305AA206F6E2074686520746F702D7269676895
S11305BA74206F6620746865206170700A000A5995
S10F05CA6F75722048522069733A2000BB
S9030000FC
